:020000040800F2
:1000000048190020DD050008E1030008E3030008AB
:10001000E7030008EB030008EF03000800000000FE
:10002000000000000000000000000000F3030008D2
:10003000F503000800000000F7030008F9030008BA
:10004000F7050008F7050008F7050008F7050008A0
:10005000F7050008F7050008F7050008F705000890
:10006000F7050008F7050008CD520008F70500085D
:10007000F7050008F7050008F7050008F705000870
:10008000F7050008F7050008F7050008F705000860
:10009000F7050008F7050008F7050008F705000850
:1000A000F7050008F7050008F7050008F705000840
:1000B000A5350008C7420008F7050008F705000845
:1000C000F7050008F7050008F7050008F705000820
:1000D000F70500081F2A000873350008F705000817
:1000E000F7050008F7050008F705000800F002F81A
:1000F00000F045F80AA090E8000C82448344AAF17D
:100100000107DA4501D100F03AF8AFF2090EBAE87A
:100110000F0013F0010F18BFFB1A43F0010318473B
:10012000C8790000E8790000103A24BF78C878C187
:10013000FAD8520724BF30C830C144BF04680C60ED
:10014000704700000023002400250026103A28BF35
:1001500078C1FBD8520728BF30C148BF0B60704739
:10016000642905F08F83782905F0C883632905F099
:100170008A84002070471FB51FBD10B510BD05F063
:10018000BDFC1146FFF7F7FF00F09AF805F0DBFC25
:1001900003B4FFF7F2FF03BC02F0E6FB10B502F078
:1001A00079FB4FF4A06000F039FA4FF4E13002F02F
:1001B000EAFB04F0E9FB04F0D9FD5A490860C820C5
:1001C00002F0A5FB04F0AEFD5749086055480268EF
:1001D0000846016855A005F0EBFA05F0BBF804F0FD
:1001E00020F9604804F0BBFA5E4803F0CDFB02F052
:1001F0005BFC03F0D7FA41F61F41092004F036F802
:10020000002140F2833002F0CDFC5748018A574864
:1002100002F0F6F803F0ECF94FF4165002F04AFF42
:1002200002F0ADFF05F020F803F0A4FB03F026FC7C
:1002300010BD10B58AB04E48007820B103F0B2FA74
:1002400000204B4908704A48407840B1454804F0C6
:1002500086FA444803F098FB00204549487044481A
:10026000807820B103F00AFC0020414988704048A2
:10027000C078D8B128223F49684605F06BFB3D485D
:1002800010380FC803F07CFF3749088A06F02AFAB5
:10029000044621463448143003F0F2F93248018A0A
:1002A000324802F0ADF800203149C870304800797A
:1002B00020B102F0CDFF00202D4908710AB010BD19
:1002C000FFF76CFF184800682B49884205D12BA026
:1002D00005F06EFA04F025FE02E030A005F068FAA1
:1002E0001E202449103908603549086018E0354857
:1002F000007808B9FFF79DFF3348007880B10020EF
:10030000314908703148007805F0EDF82F48017840
:100310002FA005F04DFA00202C49087003F0AEFB29
:10032000E5E7000000000020040000200D0A466CF4
:10033000617368494420697320307825582C202047
:100340004D616E7566616374757265722044657681
:1003500069636520494420697320307825580D0A67
:1003600000000000AE00002068000020002C0140CA
:100370008C000020440200201840EF000D0ABCEC65
:10038000B2E2B5BD53504920464C41534820573244
:10039000355131323820210D0A0000000D0AC3BB4F
:1003A000D3D0BCECB2E2B5BD53504920464C4153CA
:1003B00048205732355131323820210D0A000000D3
:1003C0006C020020E000002089000020880000204E
:1003D0006B6579736574203D2025640A0000000078
:1003E000704700BFFEE700BFFEE700BFFEE700BFAB
:1003F000FEE7704770477047704700000CB500205B
:10040000019000906C48006840F480306A490860B0
:1004100000BF6948006800F4003000900198401C5B
:100420000190009818B90198B0F5A06FF1D1624819
:10043000006800F4003010B10120009001E00020BD
:1004400000900098012843D15C48006840F01000FB
:100450005A4908600846006820F003000860084612
:10046000006840F002000860534840685249486004
:100470000846406848600846406840F4806048602C
:100480000846406820F47C1048600846406840F404
:10049000E81048600846006840F08070086000BFBF
:1004A0004548006800F000700028F9D042484068D4
:1004B00020F00300404948600846406840F00200D0
:1004C000486000BF3C48406800F00C000828F9D1A3
:1004D0000CBD10B5FFF792FF10BD10B5364800688F
:1004E00040F001003449086008464068344908403B
:1004F0003149486008460068324908402E49086082
:100500000846006820F4802008600846406820F40F
:10051000FE0048604FF41F008860FFF7DAFF4FF0DD
:1005200000602949086010BD10B50021002000229C
:10053000214B5B6803F00C0121B1042906D0082986
:1005400028D107E0214B224C236027E01F4B204C91
:10055000236023E0184B5B6803F47010164B5B6854
:1005600003F48032022303EB904022B9194B43433A
:10057000174C23600DE0104B5B6803F4003323B18C
:10058000144B4343124C236003E0104B4343104C85
:10059000236003E00D4B0E4C236000BF00BF064BF1
:1005A0005B68C3F303130C4CE15C094B1B68CB4045
:1005B000074C236010BD00000010024000200240E4
:1005C0000000FFF8FFFFF6FE08ED00E000127A00E1
:1005D0001400002000093D00180000200948804751
:1005E00009480047FEE7FEE7FEE7FEE7FEE7FEE715
:1005F000FEE7FEE7FEE7FEE704480549054A064B2D
:1006000070470000DB040008ED00000848030020EC
:1006100048190020480500204805002031490143C1
:10062000314A1160704770B5002100230F22C47851
:1006300004B32D4C246804F4E064C4F5E064210A9A
:10064000C1F10403CA40447804FA03F184781440E9
:1006500021430901254C0678A155047804F01F05B3
:100660000124AC4005786D11AD0005F1E025C5F819
:10067000004109E0047804F01F050124AC401C4D42
:100680000678761145F8264070BD1A4A0A400243A2
:10069000154B1B1F1A60704739B1134A121D12689F
:1006A0000243114B1B1D1A6006E00F4A121D12680F
:1006B00082430D4B1B1D1A607047042808D14FF070
:1006C000E021096941F004014FF0E022116107E0E7
:1006D0004FF0E021096921F004014FF0E02211619F
:1006E000704700000000FA050CED00E000E400E0B7
:1006F00080E100E080FFFF1F10B50446FA48844205
:1007000008D10121401500F0E3FD0021601500F043
:10071000DFFD17E0F548844208D10121001500F003
:10072000D7FD0021201500F0D3FD0BE0F0488442F6
:1007300008D10121C80300F0CBFD00214FF4004097
:1007400000F0C6FD10BD30B5024600200023506801
:10075000E84C20400D790C6844EA052420435060A1
:100760009068E54C2040D1E902542C434D7944EA8D
:10077000450420439060D06A20F470000C7C641E15
:10078000E4B2234340EA0350D06230BD002101604F
:10079000017141718160C16001210174704721B113
:1007A000826842F00102826003E0826822F0010266
:1007B0008260704721B1826842F48072826003E0F7
:1007C000826822F480728260704710B50023CBB239
:1007D0001AB144681C43446002E044689C4344608E
:1007E00010BD816841F0080181607047014600201A
:1007F0008A6802F008020AB1012000E00020704778
:10080000816841F0040181607047014600208A68D8
:1008100002F004020AB1012000E00020704721B17B
:10082000826842F4A002826003E0826822F4A0029F
:1008300082607047014600208A6802F480020AB193
:10084000012000E00020704710B50A460021002377
:10085000416821F46041531E41EA4331416010BDBB
:1008600021B1426842F40062426003E0426822F42F
:10087000006242607047F0B504460D46002000213A
:10088000092D11DDE068A5F10A0606EB46070726EB
:1008900006FA07F18843A5F10A0606EB460603FAB5
:1008A00006F10843E0600CE0206905EB45070726E8
:1008B00006FA07F1884305EB450603FA06F10843FB
:1008C0002061072A0FDA606B561E06EB86071F268B
:1008D00006FA07F18843561E06EB860605FA06F16E
:1008E0000843606322E00D2A0FDA206BD61F06EB67
:1008F00086071F2606FA07F18843D61F06EB8606F1
:1009000005FA06F10843206310E0E06AA2F10D0643
:1009100006EB86071F2606FA07F18843A2F10D06AB
:1009200006EB860605FA06F10843E062F0BD21B148
:10093000826842F48012826003E0826822F48012AE
:10094000826070470146C86C80B2704766484C3080
:100950000068704721B1426842F48062426003E05F
:10096000426822F480624260704721B1426842F4DA
:100970008052426003E0426822F480524260704735
:100980000A460021816821F4E041114381607047EB
:1009900021B1826842F40042826003E0826822F45E
:1009A00000428260704721B1826842F40212826084
:1009B00003E0826822F40212826070470146002040
:1009C0008A6802F400120AB1012000E0002070479A
:1009D000F0B504461546002000220026092911DD45
:1009E000E068A1F10A0707EB470C072707FA0CF2AA
:1009F0009043A1F10A0707EB470703FA07F21043F8
:100A0000E0600CE0206901EB410C072707FA0CF2CB
:100A1000904301EB410703FA07F210432061A06BFA
:100A2000C0F30156EF1C06F1010CA7EB0C0707EB16
:100A3000870C1F2707FA0CF29043EF1C06F1010CFC
:100A4000A7EB0C0707EB870701FA07F21043A06337
:100A5000F0BD10B50A4600210023816B21F440113E
:100A6000531E41EA0351816310BD08B50023009372
:100A70000090009B0B440093009B1A6008BD08B5D2
:100A8000024600200090009201F12800009B1844CB
:100A900000900098006880B208BD0A4600214168B5
:100AA000164B1940114341607047416282627047A2
:100AB0000A460021416821F01F011143416070473F
:100AC00040B109490831096841F40001064A083279
:100AD000116007E004490831096821F40001024A65
:100AE00008321160704700000024014000280140D6
:100AF000003C0140FFFEF0FFFDF7F1FFFFFD3FFF6F
:100B00000246002013680B400BB1012000E00020DA
:100B10007047CA430260704770B502460020002348
:100B200000240B125568CEB205EA060415681D4074
:100B300015B10CB1012000E0002070BD00220A12A6
:100B4000D343036070470000002044490860091D3A
:100B50000860091D0860091D086041483F491431BB
:100B60000860704700213D498279002A3AD00A4640
:100B7000126803689A430B461A600A1D12680368DC
:100B80009A430B1D1A60027911440A6803681A43DC
:100B90000A60324A0832126803689A432F4B0833BE
:100BA0001A601A1D126803689A432C4B0C331A60A2
:100BB0004279102A0ED11A1F126803681A43274B74
:100BC00008331A601A1D126803681A43234B0C334A
:100BD0001A600DE02149427911440A6803681A43FA
:100BE0000A6005E0027911440A6803689A430A60C2
:100BF00070470021016001710C2141710021817158
:100C000070471649103109680143144A10321160C7
:100C1000704701460020114A143212680A400AB196
:100C2000012000E0002070470C4914310860704733
:100C3000014600200022094B1B6803EA0102074B12
:100C400014331B680B4013B10AB1012000E00020EF
:100C500070470249143108607047000000040140E9
:100C6000FFFF0F0010B50446CC48844208D1012193
:100C7000042000F02DFB0021042000F029FB46E0B9
:100C8000C748844208D10121082000F021FB00213F
:100C9000082000F01DFB3AE0C248844208D101213F
:100CA000102000F015FB0021102000F011FB2EE0B9
:100CB000BD48844208D10121202000F009FB002119
:100CC000202000F005FB22E0B848844208D1012131
:100CD000402000F0FDFA0021402000F0F9FA16E073
:100CE000B348844208D10121802000F0F1FA0021AC
:100CF000802000F0EDFA0AE0AE48844207D10121DD
:100D0000801500F0E5FA0021A01500F0E1FA10BD11
:100D100010B50121084600F0DBFA0021012000F0A7
:100D2000D7FA10BD2DE9F04102460025002600202B
:100D300000230024002791F803C00CF00F0591F860
:100D400003C00CF0100CBCF1000F03D091F802C0EE
:100D50004CEA050591F800C0BCF1000F31D01468D1
:100D600000202BE04FF0010C0CFA00F3B1F800C0AA
:100D70000CEA03069E4220D183004FF00F0C0CFAC0
:100D800003F7BC4305FA03FC4CEA040491F803C0E2
:100D9000BCF1280F06D14FF0010C0CFA00FCC2F890
:100DA00014C00AE091F803C0BCF1480F05D14FF020
:100DB000010C0CFA00FCC2F810C0401C0828D1D36A
:100DC0001460B1F800C0BCF1FF0F34DD546800209E
:100DD0002EE000F1080C4FF0010808FA0CF3B1F80E
:100DE00000C00CEA03069E4221D183004FF00F0C95
:100DF0000CFA03F7BC4305FA03FC4CEA040491F82F
:100E000003C0BCF1280F05D100F1080C08FA0CF85A
:100E1000C2F8148091F803C0BCF1480F07D100F16B
:100E2000080C4FF0010808FA0CF8C2F81080401CBA
:100E30000828CED35460BDE8F0814FF6FF710180E1
:100E4000022181700421C17070470246002093681E
:100E50000B400BB1012000E000207047014688687C
:100E600080B2704702460020D3680B400BB10120CE
:100E700000E0002070470146C86880B270470161F9
:100E80007047416170470AB1016100E041617047FC
:100E9000C16070474FF480320A4382618161826190
:100EA00082698269704702460020434B18684FF6FA
:100EB0008073184040EA021008433F4B18607047A7
:100EC0003E49C8617047F0B50A460023002400215E
:100ED000002500F00046B6F1004F02D1364EF16910
:100EE00001E0354E7168C0F3034583B200F440164B
:100EF000B6F5401F08D121F070612F4E766826F0BC
:100F000070662D4F7E6012E000F48016B6F5801FEB
:100F100006D1032606FA05F4A14341F0706106E00C
:100F2000460D360103FA06F6B14341F0706122B175
:100F3000460D360103FA06F6314300F00046B6F1DD
:100F4000004F02D11C4EF16101E01B4E7160F0BDFB
:100F500030B500228B071C0F0F2303FA04F2164B47
:100F600008338C1053F824309343134C08348D10FD
:100F700044F8253023468C1053F824308C07240F76
:100F800000FA04F423430C4C08348D1044F8253047
:100F900030BD0A49DC31086070470000000801409C
:100FA000000C0140001001400014014000180140F5
:100FB000001C0140002001400000014000002042D0
:100FC000DF48006840F00100DD49086008464068DD
:100FD000DC490840DA49486008460068DA490840B8
:100FE000D74908600846006820F480200860084659
:100FF000406820F4FE0048604FF41F00886070478E
:10100000CF49096821F48031CD4A11601146096841
:1010100021F480211160B0F5803F03D0B0F5802F1E
:101020000ED106E0C649096841F48031C44A116016
:1010300007E0C349096841F4A021C14A116000E0FA
:1010400000BF00BF704710B50146002200230020FA
:101050004A11012A02D1BA4C236806E0022A02D1C1
:10106000B74C236A01E0B64C636A01F01F02012409
:1010700094401C400CB1012000E0002010BD38B5A8
:10108000002000900024002500BF3120FFF7DBFF87
:1010900005460098401C00900098B0F5A06F01D064
:1010A000002DF2D03120FFF7CEFF08B1012400E07F
:1010B0000024204638BD01460020A14A106820F0D7
:1010C000F80040EAC10010607047A049086070470E
:1010D000024600209A4B586820F47C1042EA010333
:1010E0001843974B58607047984908667047014607
:1010F0000020934A506820F0030008435060704776
:101100008F48406800F00C007047014600208C4A70
:10111000506820F0F00008435060704701460020FE
:10112000874A506820F4E0600843506070470146E9
:101130000020834A506820F4605040EAC1005060AB
:10114000704729B17E4A527A02437D4B5A7204E0BD
:101150007B4A527A82437A4B5A7270477B49D83124
:101160000860704701460020754A506820F44040EE
:101170000843506070470021714A20321170704A54
:1011800082F82010012802D004280AD104E00121AD
:101190006B4A2032117005E00521694A2032117036
:1011A00000E000BF00BF70476949086070476449AC
:1011B000096A0143624A116270476549443908600F
:1011C000704730B500210022002400235C4D6D687B
:1011D00005F00C0121B1042905D0082923D105E02F
:1011E0005C4D056022E05B4D05601FE0544D6D686D
:1011F00005F47012524D6D6805F48034022505EB3C
:1012000092421CB9544D554305600BE04C4D6D683E
:1012100005F400351DB1504D5543056002E04D4DBC
:101220005543056002E04B4D056000BF00BF444DD3
:101230006D6805F0F0010909484D6B5C0568DD40FB
:1012400045603F4D6D6805F4E061090A434D6B5CF4
:101250004568DD4085603A4D6D6805F46051C90A06
:101260003E4D6B5C4568DD40C560354D6D6805F4ED
:101270004041890B3A4D6B5CC568B5FBF3F50561E0
:1012800030BD29B12E4A526902432D4B5A6104E008
:101290002B4A526982432A4B5A61704729B1284A26
:1012A00092690243264B9A6104E0254A926982437F
:1012B000234B9A61704729B1214AD2690243204BDE
:1012C000DA6104E01E4AD26982431D4BDA6170473D
:1012D00029B11B4AD2680243194BDA6004E0184A6C
:1012E000D2688243164BDA60704729B1144A1269FA
:1012F0000243134B1A6104E0114A12698243104BF6
:101300001A61704712494039086070470F49C86434
:1013100070470B49C87170470948406A40F08070B7
:1013200007494862704701460020054A92680A4012
:101330000AB1012000E0002070470149887270471F
:10134000001002400000FFF8FFFFF6FE00004242DE
:101350008004424200127A0000093D00280000206B
:101360003800002010B50446BE48844208D101214F
:101370008014FFF7ADFF0021A014FFF7A9FF16E0CE
:10138000B948844208D101210014FFF7AEFF0021C3
:101390002014FFF7AAFF0AE0B448844207D10121D4
:1013A000C013FFF7A2FF0021E013FFF79EFF10BD5F
:1013B00010B50022028802F441520B884C88234366
:1013C0008C882343CC8823430C8923434C892343B3
:1013D0008C892343CC8923431A430280838B4FF2A9
:1013E000FF74234083830B8A038210BD2DE9F04FE5
:1013F00085B005460C464FF0000902274FF0000863
:101400004FF0010B0026B246A88B4FF24001084076
:10141000A88302202884B5F81C90A068022801D176
:1014200000BF38E0A08810B94FF0010B01E04FF089
:10143000020B8D48854200D100E000BF6846FFF7EF
:10144000C0FEDDF800A0E088B0F5007F0AD14FEAC9
:101450001A2000EB80004000A168B0FBF1F0401DB5
:1014600086B20BE04FEA4B10BAFBF0F000EB8000C5
:101470004000A168B0FBF1F0401D86B20A20B6FB27
:10148000F0F606F00108A6EB0800C0F34F074FF690
:10149000FF7000EA0828022F01DBFF2F02DD022780
:1014A0004FF00008E08840EA080038432884A0880C
:1014B000A1890843618808432188084340F40060FB
:1014C00040EA0909A5F81C9005B0BDE8F08F00219D
:1014D000018041808180C180018141818181C18100
:1014E0000721018270470021018041808180C180F5
:1014F0000221816000218181704721B1028842F080
:101500004002028004E002884FF6BF731A40028056
:10151000704721B1828B42F48062828304E0828B27
:101520004FF6FF331A408283704730B50024002302
:101530000C110125A540ABB21AB185881D438580E9
:1015400002E085889D43858030BD1AB183880B43B6
:10155000838002E083888B4383807047818170475A
:101560000146888970474FF6FF62914204D0028895
:1015700042F48072028004E002884FF6FF631A4052
:101580000280704721B1828842F00402828004E028
:1015900082884FF6FB731A408280704702884FF2B0
:1015A000FF731A40028002880A4302807047018854
:1015B00041F480510180704721B1028842F4005209
:1015C000028004E002884DF6FF731A4002807047E3
:1015D00002460020012901D0108B00E0908A70475C
:1015E0000146088A7047B1F5804F04D1028842F461
:1015F0008042028004E002884BF6FF731A400280AA
:1016000070470246002013890B400BB1012000E017
:1016100000207047CA4302817047F0B5024600209F
:1016200000240023002501F00F070126BE40B4B2BC
:101630000B1101269E40B3B2968806EA030516896F
:10164000264016B10DB1012000E00020F0BD10B51C
:10165000002201F00F040123A3409AB2D343038177
:1016600010BD00000030014000380040003C004048
:1016700010B50446FE48844208D10121C014FFF78A
:1016800027FE0021E014FFF723FEC4E0B4F1804FF1
:1016900008D101210846FFF728FE00210120FFF7AD
:1016A00024FEB8E0F348844208D101210220FFF76C
:1016B0001CFE00210220FFF718FEACE0EE48844239
:1016C00008D101210420FFF710FE00210420FFF7BC
:1016D0000CFEA0E0E948844208D101210820FFF770
:1016E00004FE00210820FFF700FE94E0E448844255
:1016F00008D101211020FFF7F8FD00211020FFF78D
:10170000F4FD88E0DF48844208D101212020FFF762
:10171000ECFD00212020FFF7E8FD7CE0DA48844260
:1017200008D101214014FFF7D3FD00216014FFF719
:10173000CFFD70E0D548844209D10121C804FFF7EC
:10174000C7FD00214FF40020FFF7C2FD63E0D04841
:10175000844209D101210805FFF7BAFD00214FF4A9
:101760008010FFF7B5FD56E0CA48844209D1012137
:101770004805FFF7ADFD00214FF40010FFF7A8FD6D
:1017800049E0C548844208D101214020FFF7ADFD62
:1017900000214020FFF7A9FD3DE0C048844208D168
:1017A00001218020FFF7A1FD00218020FFF79DFD92
:1017B00031E0BB48844208D101218015FFF795FD37
:1017C0000021A015FFF791FD25E0B648844209D11C
:1017D00001210804FFF77CFD00214FF48030FFF762
:1017E00077FD18E0B048844209D101214804FFF791
:1017F0006FFD00214FF40030FFF76AFD0BE0AB48AE
:10180000844208D101218804FFF762FD00214FF4D2
:101810008020FFF75DFD10BD00220288944B9842A6
:101820000ED0994B98420BD0B0F1804F08D0914B1D
:10183000984205D0904B984202D0904B984204D1E8
:101840004FF68F731A404B881A438D4B984207D03E
:101850008C4B984204D04FF6FF431A40CB881A4372
:1018600002808B8883850B880385814B98420BD03F
:10187000854B984208D08B4B984205D08A4B9842B2
:1018800002D08A4B984201D10B7A038601238382CE
:10189000704770B5002400220023058C4FF6FE76B9
:1018A00035400584028C8388048B4FF68F752C405D
:1018B000B51E2C400D882C43751E2A400D892A43E5
:1018C0004D882A436A4DA8420BD06F4DA84208D0DC
:1018D000744DA84205D0744DA84202D0734DA84261
:1018E00013D14FF6F7752A404D892A434FF6FB7501
:1018F0002A408D882A434FF6FF652B404FF6FF554F
:101900002B408D892B43CD892B4383800483CD8845
:101910008586028470BD70B5002400220023058CEA
:101920004FF6EF7635400584028C8388048B48F6A9
:10193000FF752C404FF6FF452C400D884FF6FF7683
:1019400006EA05252C434FF6DF752A400D8906EA85
:1019500005152A434D8806EA05152A43444DA84239
:1019600002D0494DA8421DD14FF67F752A404D89BE
:101970004FF6FF7606EA05152A434FF6BF752A4053
:101980008D8806EA05152A434FF6FF352B404FF2A6
:10199000FF752B408D8906EA85052B43CD8906EA24
:1019A00085052B4383800483CD880587028470BD21
:1019B00070B5002400220023058C4FF6FF663540E9
:1019C0000584028C8388848B4FF68F752C404FF6EC
:1019D000FC752C400D882C434FF6FF552A400D898D
:1019E0004FF6FF7606EA05252A434D8806EA0525C7
:1019F0002A431F4DA84202D0234DA8421DD14FF2C9
:101A0000FF752A404D894FF6FF7606EA05252A43E1
:101A10004FF6FF352A408D8806EA05252A434EF603
:101A2000FF752B404DF6FF752B408D8906EA051595
:101A30002B43CD8906EA05152B4383808483CD880B
:101A40008587028470BD70B5002200230024058CB8
:101A50004EF6FF7635400584038C8488828B48F6E9
:101A6000FF752A404FF6FF452A400D8820E0000010
:101A7000002C01400004004000080040000C004021
:101A8000001000400014004000340140004C0140B0
:101A9000005001400054014000180040001C00406C
:101AA0000020004000400140004401400048014047
:101AB0004FF6FF7606EA05252A434DF6FF752B40C3
:101AC0000D8906EA05352B434D8806EA05352B437B
:101AD000FA4DA84202D0FA4DA84208D14BF6FF7544
:101AE0002C408D894FF6FF7606EA85152C438480BD
:101AF0008283CD88A0F84050038470BD828B4FF262
:101B0000FF331A408283828B4FF6FF7303EA01236F
:101B10001A4382837047F0B50C4615460022002117
:101B20000026078C4EF6FF7C07EA0C070784828BA1
:101B3000018C4FF6FF7707EA043640F6FF473A403C
:101B40004FF6FF7707EA05273A434FF6FF7707EA94
:101B500003373A43D94FB8420ED0D94FB8420BD0D1
:101B6000B0F1804F08D0D74FB84205D0D64FB84219
:101B700002D0D64FB84206D14DF6FF77394046F431
:101B80008057394305E047F6FF57394044F4805702
:101B9000394382830184F0BD828B4FF6F3731A4080
:101BA0008283828B0A4382837047F0B50C461546C8
:101BB000002200210026078C4FF6FF6C07EA0C0775
:101BC0000784828B018C4FF6FF7707EA04264FF6D5
:101BD0000C773A404FF6FF7707EA03172F433A4353
:101BE000B64FB8420ED0B64FB8420BD0B0F1804FCE
:101BF00008D0B44FB84205D0B34FB84202D0B34F6B
:101C0000B84206D14FF6FF57394046F48077394342
:101C100005E04FF2FF57394044F48077394382831F
:101C20000184F0BD028B4FF2FF331A400283028B16
:101C30004FF6FF7303EA01231A4302837047F0B59E
:101C40000C461546002200210026078C4FF6EF7C3B
:101C500007EA0C070784028B018C4FF6FF7707EA2F
:101C6000041640F6FF473A404FF6FF7707EA03377E
:101C70003A434FF6FF7707EA05273A438F4FB842BA
:101C80000ED08F4FB8420BD0B0F1804F08D08D4F9F
:101C9000B84205D08C4FB84202D08C4FB84206D122
:101CA0004FF6DF77394046F01007394305E04FF62D
:101CB0005F77394044F01007394302830184F0BD57
:101CC000028B4FF6F3731A400283028B0A4302839E
:101CD0007047F0B50C46154600220021068C4FF6E1
:101CE000FE773E400684028B018C4FF60C76324024
:101CF0007E1C06EA03162E433243704EB0420ED0CD
:101D00006F4EB0420BD0B0F1804F08D06D4EB04254
:101D100005D06D4EB04202D06C4EB04206D14FF6A7
:101D2000FD76314044F00106314305E04FF6F5768B
:101D3000314044F00106314302830184F0BD70B5A7
:101D400005460C465D4885420ED05D4885420BD065
:101D5000B5F1804F08D05B48854205D05A4885428E
:101D600002D05A48854200D100E000BF208850B917
:101D70002389A28861882846FFF7ABFFE1882846BF
:101D8000FFF79EFF25E0208804280AD12389A28836
:101D900061882846FFF753FFE1882846FFF742FF96
:101DA00017E0208808280AD12389A288618828465C
:101DB000FFF7FBFEE1882846FFF7EEFE09E02389E6
:101DC000A28861882846FFF7A6FEE1882846FFF72B
:101DD00095FE70BD2DE9F04105460C460026012711
:101DE000608808B9022600E00026A088012801D1F9
:101DF000022700E001272088A0B92389A2886188F2
:101E00002846FFF766FFE1882846FFF759FF238938
:101E10003A4631462846FFF712FFE1882846FFF789
:101E200001FF13E02389A28861882846FFF707FF96
:101E3000E1882846FFF7F6FE23893A4631462846D0
:101E4000FFF747FFE1882846FFF73AFFBDE8F0813A
:101E50000A884B881A438B881A43CB881A430B890C
:101E60001A434B891A438B891A43A0F844207047C0
:101E70004FF6FF71818000210180C1804180017295
:101E800070470021018041808180C18001814181B2
:101E90008181C181704700210180418001218180C1
:101EA0000021C18001817047002101804180818033
:101EB000C18001814181818170470000002C014077
:101EC000003401400004004000080040000C0040C5
:101ED00021B1028842F00102028004E002884FF63C
:101EE000FE731A400280704731B1B0F8442042F4CA
:101EF0000042A0F8442005E0B0F84420C2F30E02EE
:101F0000A0F8442070471AB183890B43838102E013
:101F100083898B43838170478182704741EA020342
:101F2000A0F8483070471AB183890B43838102E0DF
:101F300083898B438381704701894FF6F872114082
:101F4000018170470A46002101894FF68F731940BD
:101F500011430181704730B504460D46294620469D
:101F6000FFF7F0FF208940F00700208130BD2DE908
:101F7000F04104460D4616461F46602D06D13B46ED
:101F8000012231462046FFF75AFE05E03B4601227A
:101F900031462046FFF79DFE29462046FFF7D2FF37
:101FA000208940F007002081BDE8F08130B50C4663
:101FB00000210189C9B24FF6FF7505EA03251543D3
:101FC00025432943018130BD2DE9F04105460E46E8
:101FD00017469846002443463A4631462846FFF7BE
:101FE000E5FF2C894FF6F870044044F007044FF6E3
:101FF0008F70044044F070042C81BDE8F081F0B58E
:1020000004460D4616461F463B46324629462046A4
:10201000FFF7CCFF208940F480402081F0BD01858E
:10202000828270470A46002101884FF68F7319405B
:10203000114301807047F0B50C4615461E4600213D
:10204000002200230189028B038C4FF6F877394078
:1020500021434FF6FC473A4040F201173A434FF60E
:10206000DD773B404FF6FF7707EA06172F433B43E8
:10207000018102830384F0BD0A460021018B4FF6E3
:102080008F7319401143018370470A460021018B69
:1020900048F6FF7319404FF6FF7303EA0223194312
:1020A000018370470A460021818B4FF68F731940D8
:1020B0001143818370470A460021818B48F6FF73E4
:1020C00019404FF6FF7303EA0223194381837047D7
:1020D00021B1028842F08002028004E002884FF6BB
:1020E0007F731A400280704721B1828842F0040257
:1020F000828004E082884FF6FB731A40828070472A
:1021000021B1828842F00802828004E082884FF682
:10211000F7731A408280704721B1828842F0010231
:10212000828004E082884FF6FE731A4082807047F6
:102130000A460021018B4FF6F773194011430183C2
:1021400070470A460021018B4FF2FF7319404FF68A
:10215000FF7303EA02231943018370470A460021F3
:10216000818B4FF6F77319401143818370470A46FC
:102170000021818B4FF2FF7319404FF6FF7303EA82
:1021800002231943818370470A460021018B4FF6D1
:10219000FB7319401143018370470A460021018BEC
:1021A0004FF6FF3319404FF6FF7303EA022319433A
:1021B000018370470A460021818B4FF6FB7319405B
:1021C0001143818370470A460021818B4FF6FF330C
:1021D00019404FF6FF7303EA0223194381837047C6
:1021E0000A460021018B4FF67F731940114301838A
:1021F00070470A460021018BC1F30E014FF6FF73B1
:1022000003EA02231943018370470A460021818BA8
:102210004FF67F7319401143818370470A460021AE
:10222000818BC1F30E014FF6FF7303EA02231943BA
:10223000818370470A460021018C4FF6FD731940D7
:102240001143018470470A460021018C4FF6F77351
:1022500019401143018470470A460021018C4FF652
:10226000DF7319404FF6FF7303EA02131943018429
:1022700070470A460021018C4FF67F7319404FF6D4
:10228000FF7303EA02131943018470470A460021D1
:10229000018C4FF6FF5319404FF6FF7303EA0223F8
:1022A0001943018470470A460021018C4FF2FF73E5
:1022B00019404FF6FF7303EA022319430184704764
:1022C0000A460021018C4DF6FF7319404FF6FF734B
:1022D00003EA023319430184704730B50023012417
:1022E0008C40A3B2048C9C430484048C02FA01F554
:1022F000ADB22C43048430BD30B5002304248C409F
:10230000A3B2048C9C430484048C02FA01F5ADB2A0
:102310002C43048430BD70B50346002000241846C9
:10232000183001258D40ACB21D8CA5431D8409B128
:10233000082909D100EB6100056825F070050560EA
:102340000568154305600EE00D1FC5F34E052844D2
:10235000056825F4E045056005684FF6FF7606EA56
:1023600002263543056070BD21B1028842F00202A9
:10237000028004E002884FF6FD731A400280704725
:1023800021B1028842F00402028004E002884FF684
:10239000FB731A400280704721B1828842F08002AC
:1023A000828004E082884FF67F731A4082807047F3
:1023B00002884FF6F7731A40028002880A430280AF
:1023C000704782884FF68F731A40828082880A4352
:1023D0008280704702894FF6F8731A4002810289A1
:1023E0000A430281704702894FF67F731A400281C7
:1023F00002890A4302817047818470478185704752
:10240000818670470187704781877047A0F8401028
:10241000704702884FF6FF431A40028002880A4341
:10242000028070470146888E70470146088F7047CA
:102430000146888F70470146B1F840007047014659
:10244000888C70470146088D704702460020138A29
:102450000B400BB1012000E000207047CA4302820C
:10246000704730B50246002000230024158A05EA93
:102470000103958905EA010413B10CB1012000E0C4
:10248000002030BDCA4302827047000010B50446E8
:10249000FB48844209D101218803FEF719FF00217E
:1024A0004FF48040FEF714FF32E0F648844209D131
:1024B00001214804FEF719FF00214FF40030FEF718
:1024C00014FF25E0F048844209D101218804FEF779
:1024D0000CFF00214FF48020FEF707FF18E0EB48C7
:1024E000844209D10121C804FEF7FFFE00214FF408
:1024F0000020FEF7FAFE0BE0E548844208D10121F6
:102500000805FEF7F2FE00214FF48010FEF7EDFE05
:1025100010BD2DE9F04786B005460E460024A246C0
:1025200000BFA1460027B08900B100BF2F462C8A0A
:102530004CF6FF700440F08804432C82AC894EF6C0
:10254000F3100440B088318908437189084304437B
:10255000AC81AC8A4FF6FF400440B0890443AC82A2
:1025600001A8FEF72EFEC648874202D1DDF810A072
:1025700001E0DDF80CA0A88900F4004040B10AEBAE
:10258000CA0000EB0A1031684900B0FBF1F807E01F
:102590000AEBCA0000EB0A1031688900B0FBF1F8C1
:1025A0006420B8FBF0F004012009642101FB1089CC
:1025B000A88900F4004040B1322000EBC900B0FB14
:1025C000F1F000F00700044308E0322000EB0910AE
:1025D0006421B0FBF1F000F00F0004432C8106B041
:1025E000BDE8F0874FF41651016000218180C18061
:1025F00001810C21418100218181704710B5024683
:102600000020108A4FF2FF0318400B884C882343A8
:102610008C882343CC8823431843108210BD0021AB
:10262000018041808180C180704721B1828942F45C
:102630000052828104E082894DF6FF731A40828144
:102640007047F0B50346002400260025002040F620
:102650006A17B94200D100BF1846C1F3421401F015
:102660001F06012707FA06F5012C01D10C3004E002
:10267000022C01D1103000E014301AB107682F434A
:10268000076002E00768AF430760F0BD1AB1838AB4
:102690000B43838202E0838A8B4383827047028AE2
:1026A0004FF6F0731A400282028A0A430282704790
:1026B00082894FF2FF731A40828182890A438281A4
:1026C000704721B1828942F00202828104E082894E
:1026D0004FF6FD731A4082817047028A4FF6DF730E
:1026E0001A400282028A0A430282704721B1028A9A
:1026F00042F48042028204E0028A4BF6FF731A40E1
:1027000002827047C1F308028280704701468888C0
:10271000C0F308007047818941F001018181704751
:10272000028BD2B20283028B42EA012202837047FB
:10273000028B02F47F420283028B0A4302837047BA
:1027400021B1828A42F02002828204E0828A4FF61E
:10275000DF731A408282704721B1828A42F01002F0
:10276000828204E0828A4FF6EF731A4082827047B9
:1027700021B1828A42F00802828204E0828A4FF606
:10278000F7731A408282704721B1828942F4004275
:10279000828103E08289C2F30E028281704721B1F7
:1027A000828A42F40062828204E0828A4FF2FF73DE
:1027B0001A4082827047828A4FF6FB731A408282E7
:1027C000828A0A438282704721B1828A42F00202E1
:1027D000828204E0828A4FF6FD731A40828270473B
:1027E00002460020B1F5007F00D100BF13880B40E6
:1027F0000BB1012000E00020704701F40072B2F537
:10280000007F00D100BFCA430280704770B5024606
:10281000002400230025002040F66A16B14200D1B2
:1028200000BFC1F3421501F01F03012606FA03F3AE
:10283000012D02D19689334006E0022D02D1168A7D
:10284000334001E0968A33400C12012606FA04F464
:102850001688344013B10CB1012000E0002070BD97
:1028600010B50022002340F66A14A14200D100BF37
:102870000A1201249440A3B2DC43048010BD00007E
:10288000003801400044004000480040004C004037
:102890000050004010B56FF00400FDF70EFF2E4809
:1028A00000682E49B0FBF1F02D4908700846007809
:1028B00000EB4001C1EBC0104FF6FF7101EAC00010
:1028C0002849088010BD0146254A12784A434FF036
:1028D000E0235A6100229A611A46126942F001020D
:1028E0001A6100BF4FF0E022106900F001021AB136
:1028F00000F48032002AF5D04FF0E022126922F075
:1029000001024FF0E0231A6100229A6170470146EC
:10291000144A12884A434FF0E0235A6100229A6118
:102920001A46126942F001021A6100BF4FF0E0221C
:10293000106900F001021AB100F48032002AF5D0CB
:102940004FF0E022126922F001024FF0E0231A61F9
:1029500000229A61704700001400002000127A00E3
:102960003C0000203E000020014600BF704700BF31
:10297000494A128802F04002002AF9D0C2B2464BFE
:102980001B1D1A80704710B586B00446012144F221
:102990000400FEF783FC4FF40070ADF81400032030
:1029A0008DF8160018208DF8170005A93B48FEF792
:1029B000B9F94FF48060ADF8140004208DF81700C9
:1029C00005A93648FEF7AEF925208DF80000032052
:1029D0008DF801008DF8020001208DF80300684693
:1029E000FDF721FE01940020ADF80800ADF80A00C3
:1029F000ADF80C00ADF810000C20ADF80E0001A9E8
:102A00002548FFF786FD012240F225512248FFF7B5
:102A100018FE01212048FFF708FE06B010BD10B5D2
:102A200040F225511C48FFF7F1FE10B31A48FFF79A
:102A30006DFEC4B21A48008800F40040C8B91848B6
:102A4000008800F4804060B10A2C03D000201449B3
:102A5000088020E01248008840F4004010490880B7
:102A600019E00D2C06D10E48008840F480400C4936
:102A7000088010E00A480088C0F30D0009490C5492
:102A800007480088401C0649088008460088C72877
:102A900001DD0020088010BD003801400008014021
:102AA00044000020F000002000B587B001214FF461
:102AB0000370FEF7F3FB4FF40040FEF753FB0320D7
:102AC000ADF8040000208DF8070001A93248FEF798
:102AD00029F90320ADF8040001A93048FEF722F9D6
:102AE0002F48FDF709FE002002908DF80C008DF8AC
:102AF0000D004FF4602004900020059001208DF817
:102B0000180002A92648FDF71EFE01212448FDF702
:102B100046FE2348FDF765FE00BF2148FDF766FE2F
:102B20000028FAD11E48FDF76BFE00BF1C48FDF7D8
:102B30006CFE0028FAD107B000BD10B5044607238B
:102B4000012221461648FDF796FE01211448FDF7A3
:102B500066FE00BF02211248FDF7D2FF0028F9D01F
:102B60000F48FDF7EFFE10BD2DE9F04107460C467A
:102B70000025002608E03846FFF7DFFF0544052062
:102B8000FFF7C5FE701CC6B2A642F4DBB5FBF4F03D
:102B900080B2BDE8F081000000080140000C014057
:102BA0000024014030B589B005460C460121C80219
:102BB000FEF774FB01210420FEF770FB4FF4106058
:102BC000ADF8200018208DF8230003208DF8220096
:102BD00008A91848FEF7A6F8ADF81850ADF814404B
:102BE0000020ADF81A00ADF8160005A91248FEF74E
:102BF00013FE7020ADF804000120ADF8060000209F
:102C0000ADF80A00ADF80C0001A90B48FEF741FE33
:102C100001210948FFF768F908210748FFF788FAFA
:102C200001210548FFF754FA01210348FFF750F945
:102C300009B030BD00080140002C014008B5012159
:102C40000820FEF72BFB4020ADF8000003208DF894
:102C5000020014208DF803006946FE48FEF762F872
:102C60008020ADF8000003208DF8020014208DF8BC
:102C700003006946F748FEF755F808BD322001E029
:102C8000411EC8B20028FBD1704710B5FFF7D6FF30
:102C900010BD10B58020EF4910310860FFF7EEFF3E
:102CA0004020EC4910310860FFF7E8FFE9480830A0
:102CB000006800F0800008B9002010BD8020E549C0
:102CC00014310860FFF7DAFF4020E2491431086050
:102CD000FFF7D4FF0120F0E710B54020DD491431A3
:102CE0000860FFF7CBFF8020DA4914310860FFF756
:102CF000C5FF4020D74910310860FFF7BFFF802093
:102D0000D44910310860FFF7B9FF10BD10B540205D
:102D1000D04914310860FFF7B1FF8020CD49103150
:102D20000860FFF7ABFF4020CA4910310860FFF789
:102D3000A5FFC8480830006800F0800028B1402096
:102D4000C44914310860002010BD4020C14914312D
:102D500008600120F8E770B5044608251BE0402014
:102D6000BC4914310860FFF789FF04F0800020B1EE
:102D70008020B8491031086003E08020B549143143
:102D800008606006040EFFF779FF4020B14910315A
:102D90000860FFF773FF281EA5F10101CDB2DED157
:102DA0004020AC491431086070BD10B50446FFF7EF
:102DB00070FF7820FFF7CFFFFFF7A8FF0020FFF795
:102DC000CAFFFFF7A3FF2046FFF7C5FFFFF79EFFEF
:102DD000FFF782FF10BD10B50446FFF75AFF7820B9
:102DE000FFF7B9FFFFF792FF4020FFF7B4FFFFF7AF
:102DF0008DFF2046FFF7AFFFFFF788FFFFF76CFF5F
:102E000010BD10B5FFF741FF10BD10B56420FFF7EE
:102E10007EFDAE20FFF7C9FF2020FFF7C6FF102080
:102E2000FFF7C3FFB020FFF7C0FFC820FFF7BDFFCB
:102E30000020FFF7BAFF1020FFF7B7FF4020FFF791
:102E4000B4FF8120FFF7B1FFFF20FFF7AEFFA12005
:102E5000FFF7ABFFA620FFF7A8FFA820FFF7A5FF0D
:102E60003F20FFF7A2FFA420FFF79FFFD320FFF72B
:102E70009CFF0020FFF799FFD520FFF796FFF02079
:102E8000FFF793FFD920FFF790FF2220FFF78DFF78
:102E9000DA20FFF78AFF1220FFF787FFDB20FFF71A
:102EA00084FF2020FFF781FF8D20FFF77EFF142095
:102EB000FFF77BFFAF20FFF778FF10BD70B504462A
:102EC0000D4605F1B001C8B2FFF76FFF102141EACE
:102ED0001410FFF76AFF04F00F0141F00100FFF743
:102EE00064FF70BD70B50646002415E004F1B00122
:102EF000C8B2FFF75AFF0020FFF757FF1020FFF777
:102F000054FF002504E03046FFF765FF681CC5B29A
:102F1000802DF8DB601CC4B2082CE7DB70BD10B557
:102F20000020FFF7DFFF10BD10B58D20FFF73DFF3C
:102F30001420FFF73AFFAF20FFF737FF10BD10B5A1
:102F40008D20FFF732FF1020FFF72FFFAE20FFF795
:102F50002CFF10BD2DE9F04706460F4690469A46D5
:102F600000250024A146BAF1030F37D131E018F84B
:102F700009002038C5B2782E02DD0026781CC7B2C1
:102F800039463046FFF79AFF002407E004EB0511AD
:102F9000314A505CFFF71FFF601CC4B2082CF5DB00
:102FA000781CC1B23046FFF789FF002408E004EB2B
:102FB00005110831284A505CFFF70DFF601CC4B2B0
:102FC000082CF4DB06F10800C6B209F1010000F09C
:102FD000FF0918F809000028C9D100BF00BFBDE8EB
:102FE000F0872DE9F04180460E46174600247D010A
:102FF00031464046FFF762FF00BF06E01749485DD3
:10300000FFF7E9FE6D1C601CC4B2102CF6DB701CCF
:10301000C1B24046FFF752FF002406E00F49485D69
:10302000FFF7D9FE6D1C601CC4B2102CF6DBBDE8A6
:10303000F0812DE9F05F06460F4690461C46DDF80C
:1030400028A04FF0000BE11704EB5171C910A4EB5D
:10305000C10105E0000C0140CE6E00086E6A000858
:1030600031B92046E11704EB5171C1F3C70506E001
:103070002046E11704EB5171C910491CCDB23D4601
:1030800014E029463046FFF719FFB1460AE05946D9
:103090000BF1010B1AF80100FFF79DFE09F1010089
:1030A00000F0FF09C145F2DB681CC5B2A542E8DBB0
:1030B000BDE8F09F10B586B0044601210C20FEF754
:1030C000EDF801214804FEF7F6F80420ADF81400ED
:1030D00018208DF8170003208DF8160005A9FE486A
:1030E000FDF720FE0820ADF8140004208DF817002D
:1030F00003208DF8160005A9F748FDF713FE4FF4DD
:103100000050ADF8140010208DF8170003208DF842
:10311000160005A9F148FDF705FE01940020ADF861
:103120000800ADF80A00ADF80C00ADF810000C2056
:10313000ADF80E0001A9EA48FFF7EBF90121E848D4
:10314000FFF773FA4021E648FFF757FB012240F2F0
:103150002551E348FFF775FA26208DF8000000207E
:103160008DF801008DF8020001208DF803006846FB
:10317000FDF759FA0020DB49086006B010BD1FB505
:1031800001210846FEF797F84FF47A70ADF8080071
:103190004720ADF804000020ADF80A00ADF80600A5
:1031A00001A94FF08040FEF737FB0122114690073E
:1031B000FEF7A9FE01218807FFF764F91C208DF8AE
:1031C000000001208DF8010000208DF80200012090
:1031D0008DF803006846FDF726FA01218807FEF7FF
:1031E00077FE1FBD10B50346BF480078814201DD60
:1031F000BD480178002205E0BC48805C18705B1C6B
:10320000501CC2B28A42F7DB0020B74C207008463F
:1032100010BD70B505460E4600240120B149086076
:103220000320FFF774FB00BF0CE0295DAC48FFF7FB
:1032300069FA00BF8021AA48FFF7D2FA0028F9D026
:10324000601CC4B2B442F0DD0020A649086070BD25
:103250002DE9F04700270024A548007800287DD0FC
:103260000020A34908703C21A248FFF7BBFFA249F8
:103270000870A0480078A149097888426ED19E481C
:103280000078801EC1B29B4800F0CEF90646C6F316
:10329000072806F0FF0998480078801E9549085CC9
:1032A0004045EBD194480078401E085C4845E5D184
:1032B00008464078032802D006287DD1D4E08D4806
:1032C0008078002879D18B48C078052875DC89483A
:1032D000C078052872DC8748C77845796806000EF3
:1032E00084498870032084490870062F23D2DFE8C0
:1032F00007F00323476D8FAF18E02046611CCCB266
:103300007F49095C7C4802780078401C7A4B187031
:10331000784881542046611CCCB279490A5C184631
:1033200001780078401C187072484254281EA5F19C
:103330000101CDB2E1D18CE01CE02046611CCCB291
:103340006F490A31095C6C4802780078401C6A4B6E
:103350001870684881542046611C00E0E0E0CCB25F
:1033600067490A31095C184602780078401C1870D9
:1033700060488154281EA5F10101CDB2DDD168E07D
:103380001EE02046611CCCB25D491431095C5A48EC
:1033900002780078401C584B1870564881542046DB
:1033A000611CCCB2564914310A5C18460178007889
:1033B000401C18704F4802E075E04CE04AE042546F
:1033C000281EA5F10101CDB2DBD142E01AE0204672
:1033D000611CCCB24A491E31095C4748027800782A
:1033E000401C454B1870434881542046611CCCB2A8
:1033F00043491E310A5C184601780078401C187059
:103400003C484254281EA5F10101CDB2DFD120E095
:1034100018E02046611CCCB23A49095C3648027873
:103420000078401C344B1870324881542046611C8F
:10343000CCB234490A5C184601780078401C1870F8
:103440002C484254281EA5F10101CDB2E1D100E083
:1034500000BF00BF30E083202649487002208870FA
:1034600003202549087027E02248807890B9214838
:10347000C07805280EDC1F48C078042804DC1D48ED
:10348000C77840792049C8551B480078801E1A49E2
:10349000087011E0862017494870022088700320C8
:1034A0001549087008E08020124948700120887092
:1034B00003201149087000BF00BF0F4801780D4874
:1034C00000F0B2F80646C6F307210B4802780078F0
:1034D000401C094B187019E000080140000C014025
:1034E00000440040AC01214246000020B801002009
:1034F00047000020F80100204E0000204D00002071
:103500003C0200207C00002048000020304881540C
:103510001A4612788654184601782D48FFF779FE2E
:10352000BDE8F0872B49097800291EDD2A49097872
:10353000284A1278914207D026490978264A117004
:103540000021264A117013E02449097805290FDA71
:10355000224909780144214A117011460978052948
:1035600006DB01211E4A117002E000211A4A117087
:10357000704710B540F225511A48FFF747F980B15E
:103580001848FFF7C3F8C4B212480078402808D2A0
:1035900015481049097844540E480078401C0D49DC
:1035A000087010BD10B501218807FEF75AFF70B1F1
:1035B00001218807FEF766FF0120FFF7B3FF0B48E4
:1035C000006808B9012000E000200849086010BD2B
:1035D000F8010020460000204F000020500000208D
:1035E0004700002000440040B8010020BC81214277
:1035F00008B501210820FDF751FE4FF40040ADF859
:10360000000010208DF8030003208DF802006946A9
:103610000448FDF787FB4FF400400249143108606D
:1036200008BD0000000C01402DE9F041ADF5007D22
:1036300004460E46FF27B8467A1C0F4940A802F000
:1036400089F97A1C0D49684602F084F909E014F8FA
:10365000010B80EA070540A8405D80EA08071DF8D5
:103660000580301EA6F10101CEB2F0D148EA072054
:103670000DF5007DBDE8F081C0780008C079000834
:103680002DE9F05F05468946002400274FF07E5162
:10369000484603F03BF90CD8484602F0EBFF86B2EF
:1036A000304603F01FF88346494603F060F9804630
:1036B00008E00026304603F015F88346494603F03B
:1036C00056F9804636B9302028702E206870601C6C
:1036D000C4B22AE00EE00A2096FBF0F100FB116074
:1036E0003030C2B22046611CCCB22A540A2096FB6C
:1036F000F0F086B2002EEEDC601EC4B200270AE0B5
:10370000E01B15F800A0601E285CE855601E05F857
:1037100000A0781CC7B2601C00EBD072791CB1EB22
:10372000620FEDDDC4B22E202855601CC4B285495D
:10373000404603F01FF8834602F09CFF80B20A2146
:1037400090FBF1F201FB12003030C2B22046611C46
:10375000CCB22A547C49404603F00CF8834602F070
:1037600089FF80B20A2190FBF1F201FB1200303098
:10377000C2B22046611CCCB22A547449404602F0C1
:10378000F9FF834602F076FF80B20A2190FBF1F246
:1037900001FB12003030C2B22046611CCCB22A5468
:1037A000BDE8F09F2DE9FF5F05210020FFF7DCF960
:1037B0008346584602F006FC80464FF06632644B62
:1037C00002F014FC06460022624B02F00FFC044695
:1037D00002F0C6F982466048C0F82CA005210120FD
:1037E000FFF7C2F98346504602F0E8FD4FF066321B
:1037F0005A4BCDE9000102F0F9FB06460022584B76
:1038000002F088FA0022574BCDE9020102F0ECFCED
:103810008046554A554B02F07DFA044602F0A0F965
:1038200082464D48C0F830A00246116BD06A02F0C3
:10383000A1FF49494863086802F03CFF0446464935
:10384000486B214602F054FE434948600521082098
:10385000FFF78AF98346584602F0B4FB80464FF0E2
:1038600066323B4B02F0C2FB06460022394B02F0A7
:10387000BDFB044602F074F982463D48C0F82CA016
:1038800005210920FFF770F98346504602F096FDA6
:103890004FF06632314BCDE9000102F0A7FB06463E
:1038A00000222F4B02F036FA044600222D4B02F084
:1038B0009BFC2D4A2D4BCDE9020102F02BFA8046EC
:1038C00002F04EF982462A48C0F830A00246116B39
:1038D000D06A02F04FFF26494863086802F0EAFE0A
:1038E00004462349486B214602F002FE2049486005
:1038F0001948C16A0830FFF7C3FE1748016B123040
:10390000FFF7BEFE1448416B1C30FFF7B9FE1248AA
:1039100041682630FFF7B4FE1548C16A0830FFF74A
:10392000AFFE1348016B1230FFF7AAFE1048416B3F
:103930001C30FFF7A5FE0E4841682630FFF7A0FEB9
:10394000BDE8FF9F000020410000C84200007A440B
:1039500066664A3F000014403402002066660A4052
:103960000000B04000000440AE47E17A14AEC73F0B
:103970006C02002010B50324FFF743FAFFF745FA65
:103980000020FFF7AFFA10BD8179CA1701EB127260
:1039900012113032F94B1A708179CA1701EB127289
:1039A0001211A1EB021230325A703A211A4691706C
:1039B0004179CA1701EB127212113032DA70417973
:1039C000CA1701EB12721211A1EB021230321A71F6
:1039D0003A211A4651710179CA1701EB127212117C
:1039E00030329A710179CA1701EB12721211A1EBF0
:1039F00002123032DA712D211A461172C17830313B
:103A00005172002191728178CA1701EB1272121162
:103A10003032DB4B1A708178CA1701EB1272121127
:103A2000A1EB021230325A703A211A469170417855
:103A3000CA1701EB127212113032DA704178CA17CC
:103A400001EB12721211A1EB021230321A713A21FB
:103A50001A4651710178CA1701EB127212113032F5
:103A60009A710178CA1701EB12721211A1EB0212BE
:103A70003032DA7100211A461172704710B5C14810
:103A8000007830B101287DD002287CD003287BD17A
:103A900089E2BD480078A0B10020BB490870BB484E
:103AA0000078401CB949087008460078052808D1FC
:103AB000002008700120B649087048708870C870EE
:103AC0000871B248007805282DD2DFE800F0032DF8
:103AD0008BF7F500AE480078012818D1FFF71FFAE0
:103AE0000020AB490870002211462020FFF779FA28
:103AF000012200213020FFF774FA02220021402029
:103B0000FFF76FFA032200215020FFF76AFA032320
:103B10009A4A02211820FFF71DFA0323984A04212C
:103B20002020FFF717FAABE19948407801284BD1E4
:103B3000FFF7F5F90020964948700B22002108464E
:103B4000FFF74FFA0C2200211020FFF74AFA0D224E
:103B500000212020FFF745FA042200213020FFF742
:103B600040FA0E2200214020FFF73BFA0F220021ED
:103B70005020FFF736FA102200216020FFF731FABB
:103B8000042202E07EE1C5E10CE202210020FFF701
:103B900028FA052202211020FFF723FA03237DA231
:103BA00002212020FFF7D6F9042211460020FFF75A
:103BB00018FA062204211020FFF713FA032375A236
:103BC00004212020FFF7C6F90323734A022128208D
:103BD000FFF7C0F90323704A0A3204212820FFF7B7
:103BE000B9F94DE16A488078012851D1FFF797F97A
:103BF0000020674988700B2200210846FFF7F1F981
:103C00000C2200211020FFF7ECF90D2200212020CA
:103C1000FFF7E7F9042200213020FFF7E2F90E2236
:103C200000214020FFF7DDF90F2200215020FFF78F
:103C3000D8F9102200216020FFF7D3F907220221D2
:103C40000020FFF7CEF9082202211020FFF7C9F962
:103C5000032350A202212020FFF77CF90722042130
:103C60000020FFF7BEF9082204211020FFF7B9F960
:103C7000092204212020FFF7B4F90A220421302070
:103C8000FFF7AFF9032343A204214020FFF762F9B5
:103C90000323414A143202212820FFF75BF9002157
:103CA0003D48083880F82B10032300F12602042138
:103CB0004820FFF74FF9E3E072E0FFE73448C078AF
:103CC00001284CD1FFF72BF900203149C87011228F
:103CD00000210846FFF785F90B2200211020FFF78D
:103CE00080F90C2200212020FFF77BF90D22002112
:103CF0003020FFF776F9042200214020FFF771F908
:103D00000E2200215020FFF76CF90F2200216020C5
:103D1000FFF767F9102200217020FFF762F90422F3
:103D200002210020FFF75DF9052202211020FFF794
:103D300058F9032317A202212020FFF70BF90422D0
:103D400011460020FFF74DF9062204211020FFF74D
:103D500048F903230FA204212020FFF7FBF80323D7
:103D60000E4A02212820FFF7F5F803230B4A0A32F6
:103D700004212820FFF7EEF882E000005100002027
:103D8000D6020020E00000208B0000205F00002011
:103D9000600000203A0000003C0200207402002075
:103DA000E2480079012858D1FFF7B9F80020DF492F
:103DB0000871112200210846FFF713F90B22002198
:103DC0001020FFF70EF90C2200212020FFF709F93F
:103DD0000D2200213020FFF704F9042200214020A9
:103DE000FFF7FFF80E2200215020FFF7FAF80F220C
:103DF00000216020FFF7F5F8102200217020FFF766
:103E0000F0F8072202210020FFF7EBF80822022138
:103E10001020FFF7E6F80323AFF2880202212020EA
:103E2000FFF798F8072204210020FFF7DAF80822AC
:103E300004211020FFF7D5F8092204212020FFF7E4
:103E4000D0F80A2204213020FFF7CBF80323AFF289
:103E5000BC0204214020FFF77DF80323B44A02216D
:103E60002820FFF777F80021B1481C3880F82B1084
:103E7000032300F1260204214820FFF76BF800BF5E
:103E800000BF51E1AB480078012828D10020A949A2
:103E90000870FFF744F8122200212020FFF7A1F854
:103EA000132200213020FFF79CF819220021402026
:103EB000FFF797F8192202214020FFF792F81A2203
:103EC00006210020FFF78DF803239BA20621302056
:103ED000FFF740F81B2206217020FFF782F8984870
:103EE00040780A2190FBF1F03030964908709448F0
:103EF00040780A2190FBF1F201FB12003030914929
:103F000048700020887003230A4602213020FFF702
:103F100021F809E18C480078012828D100208A493D
:103F20000870FEF7FCFF122200212020FFF759F84D
:103F3000132200213020FFF754F8142200214020E2
:103F4000FFF74FF8142202214020FFF74AF81A2207
:103F500006210020FFF745F8032377A20621302031
:103F6000FEF7F8FF1B2206217020FFF73AF874488D
:103F700080780A2190FBF1F030307249C8707048A7
:103F800080780A2190FBF1F201FB12003030C1B2BF
:103F90006C480171002141710323C21C02213020B1
:103FA000FEF7D8FFC0E06948007800285ED1684875
:103FB000007801282AD1FEF7B2FF0020644908707A
:103FC000122200212020FFF70CF8132200213020BC
:103FD000FFF707F8022200214020FFF702F8032232
:103FE00000215020FEF7FDFF03235AA202210020EA
:103FF000FEF7B0FF032358A204210020FEF7AAFF1A
:10400000032356A206210020FEF7A4FF03234D4AF6
:10401000921D02211020FEF79DFF0323AFF28C2298
:1040200002212020FEF796FF0323464A0221282082
:10403000FEF790FF0323AFF2A42202213820FEF7FF
:1040400089FF03233F4AD21C02214020FEF782FF52
:104050000323434A04211020FEF77CFF0323404A38
:10406000921D06211820FEF775FF5CE000203749FD
:10407000087037480078012855D1FEF750FF00201E
:104080003349087012220221FEF7ABFF13220221EE
:104090001020FEF7A6FF142202212020FEF7A1FF28
:1040A000152202213020FEF79CFF11220221402020
:1040B000FEF797FF1C2202215020FEF792FF1D22DF
:1040C00002216020FEF78DFF032326A2022170202B
:1040D000FEF740FF1E2204210020FEF782FF1F2270
:1040E00004211020FEF77DFF202204211046FEF758
:1040F00078FF212204213020FEF773FF22220421C1
:104100004020FEF76EFF022204215020FEF769FFD7
:10411000032204216020FEF764FF032312A204217E
:104120007020FEF717FF00BF00BF10BD6000002029
:10413000880200205C0000204E455854000000001A
:10414000E0000020DF0200205D000020DF000020F2
:104150005E00002032300000433A00004E433A0037
:10416000D30000202C00000021000000012801DC09
:10417000012004E040F28331884200DB08467047AA
:104180000FB42DE9F041119802F074FA35498860B6
:104190003549119802F0EEFA0746129902F0EAFA50
:1041A0000646314902F0E6FA054602F063FA2D4967
:1041B000086008460068496888421FD92948806815
:1041C0002849C968884209D92648008A401C84B217
:1041D0002046FFF7CBFF2349488234E0214880681E
:1041E0002049C96888422ED21E48008A401E84B2E7
:1041F0002046FFF7BBFF1B49488224E019480068AE
:104200001849496888421ED2164880681549C9680D
:10421000884209D91348008A401E84B22046FFF71D
:10422000A5FF104948820EE00E4880680D49C96814
:10423000884208D20B48008A401C84B22046FFF70F
:1042400095FF08494882074880680649C8600846C3
:10425000006848600846408A0882BDE8F0015DF8C1
:1042600014FB00006800002000007A447FB505467A
:104270000C4601210220FDF71EF8ADF80850ADF8FC
:1042800004400020ADF80A00ADF8060001A9494835
:10429000FDF7C2FA012211464648FDF734FE1D2003
:1042A0008DF8000001208DF8010000208DF802003B
:1042B00001208DF803006846FCF7B5F901213D485F
:1042C000FDF706FE7FBD2DE9F04100240025002604
:1042D000002701213748FEF7C4F8002868D00121E3
:1042E0003448FEF7CFF834480078401E3249087051
:1042F00008460078F8B908460079087001F043F8DC
:10430000054601F07CF8064601F0B1F807462DB1EC
:104310002A48057001202A4908700CE02EB1274870
:10432000067001202649087005E027B12348077070
:1043300001202349087020484078401E1E494870DB
:104340000846407828B908464079487001201D4940
:10435000087019484088401E174948800846408820
:1043600028B90846C08848800120174908700024F1
:104370001CE0164830F8140038B1144830F8140026
:10438000401E81B2114820F81410104830F8140073
:1043900050B90E480A3030F814100A3820F81410BA
:1043A00001200A49891F0855601CC4B2052CE0DBB6
:1043B000BDE8F08100040040A60000208800002035
:1043C000890000208A0000208B000020920000203D
:1043D00008B501210820FCF761FF4FF48060ADF8BB
:1043E000000003208DF8020014208DF803006946B8
:1043F000FC48FCF797FC4FF40060ADF80000032088
:104400008DF8020014208DF803006946F548FCF78A
:1044100089FC08BD322001E0411EC8B20028FBD152
:10442000704710B5FFF7D4FF10BD10B54FF4006012
:10443000EC4910310860FFF7EDFF4FF48060E94967
:1044400010310860FFF7E6FFE6480830006800F426
:10445000006008B9002010BD4FF40060E14914313C
:104460000860FFF7D7FF4FF48060DE491431086021
:10447000FFF7D0FF0120EEE710B54FF48060D94977
:1044800014310860FFF7C6FF4FF40060D5491431BE
:104490000860FFF7BFFF4FF48060D2491031086019
:1044A000FFF7B8FF4FF40060CE4910310860FFF706
:1044B000B1FF10BD10B54FF48060CA4914310860D7
:1044C000FFF7A8FF4FF40060C64914310860FFF7FA
:1044D000A1FF4FF48060C34910310860FFF79AFFD5
:1044E0004FF48060BF4914310860FFF793FF10BD9F
:1044F00010B54FF48060BB4914310860FFF78AFFA4
:104500004FF40060B74910310860FFF783FF4FF4A4
:104510008060B44910310860FFF77CFF4FF4806081
:10452000B04914310860FFF775FF10BD10B54FF4A6
:104530008060AC4914310860FFF76CFF4FF40060F5
:10454000A84910310860FFF765FF4FF48060A54966
:1045500010310860FFF75EFFA2480830006800F4E1
:10456000006030B14FF480609E4914310860002033
:1045700010BD4FF480609B49143108600120F7E7BB
:1045800070B5044608251FE04FF48060954914314A
:104590000860FFF73FFF04F0800028B14FF400608F
:1045A00090491031086004E04FF400608D491431E7
:1045B00008606006040EFFF72DFF4FF48060894904
:1045C00010310860FFF726FF281EA5F10101CDB2CA
:1045D000DAD14FF4806083491431086070BD70B542
:1045E0000825002428027F491031086017E0600682
:1045F000040E4FF480607B4914310860FFF70AFF16
:104600004FF48060774910310860FFF703FF754869
:104610000830006800F4006008B144F00104281E6E
:10462000A5F10101CDB2E2D14FF480606D491431A2
:104630000860204670BD10B5FFF7F7FE08B90020EE
:1046400010BD6420FFF79CFFFFF770FF18B9FFF75C
:1046500013FF0020F4E71020FFF792FFFFF766FF3B
:104660008020FFF78DFFFFF761FFFFF705FFFFF7E2
:10467000DCFE6420FFF784FFFFF758FF0F20FFF7F1
:104680007FFFFFF753FF8420FFF77AFFFFF74EFF0E
:10469000FFF7F2FE0120D3E710B5FFF7C6FE08B919
:1046A000002010BD6420FFF76BFFFFF73FFF18B934
:1046B000FFF7E2FE0020F4E70F20FFF761FFFFF7AE
:1046C00035FF0020FFF75CFFFFF730FF0020FFF70A
:1046D00057FFFFF72BFFFFF7CFFE0120E1E710B5F3
:1046E0000446FFF7A8FFFFF7A0FE6420FFF748FF8E
:1046F000FFF71CFF18B9FFF7BFFE002010BD002018
:10470000FFF73EFFFFF712FF2078FFF739FFFFF7B3
:104710000DFF6078FFF734FFFFF708FFA17841F045
:104720008000FFF72DFFFFF701FFE078FFF728FF7C
:10473000FFF7FCFE2079FFF723FFFFF7F7FE607914
:10474000FFF71EFFFFF7F2FEA079FFF719FFFFF753
:10475000EDFEFFF791FEFFF79FFF0120CEE710B5BA
:104760000446FFF762FE6420FFF70AFFFFF7DEFE54
:1047700018B9FFF781FE002010BD0020FFF700FFF1
:10478000FFF7D4FEFFF751FE6520FFF7F9FEFFF7B4
:10479000CDFEFFF724FF2070FFF78CFEFFF71FFF11
:1047A0006070FFF787FEFFF71AFF00F07F00A07030
:1047B000FFF780FEFFF713FFE070FFF77BFEFFF7C8
:1047C0000EFF2071FFF776FEFFF709FF6071FFF71C
:1047D00071FEFFF704FFA071FFF78AFEFFF74CFEA2
:1047E0000120C9E7000C01402DE9F04104460E46C6
:1047F00017461D46642C01D1FFF71DFFFFF715FE7C
:104800002046FFF7BDFEFFF791FE20B9FFF734FE0B
:104810000020BDE8F0813046FFF7B2FEFFF786FECC
:1048200005E015F8010BFFF7ABFEFFF743FE381E5E
:10483000A7F10101CFB2F4DCFFF71EFE642C01D119
:10484000FFF72AFF0120E4E72DE9F04105460E4677
:1048500017461C46FFF7E9FD2846FFF791FEFFF7D4
:1048600065FE20B9FFF708FE0020BDE8F081304664
:10487000FFF786FEFFF75AFEFFF7D7FD691CC8B2A7
:10488000FFF77EFEFFF752FE05E0FFF7A8FE20705F
:10489000FFF710FE641C781EC0B2071EF5DCFFF7A0
:1048A0009EFE2070FFF724FEFFF7E6FD0120DCE707
:1048B0003EB50446F02000906078B42141EA8010B3
:1048C000C0B28DF8040020780007000E8DF80500B6
:1048D00000208DF8060020798DF80700A088000AD6
:1048E0008DF808006068000C8DF809006B46012205
:1048F00010216420FFF778FF01AB0622102164200D
:10490000FFF772FF3EBD3EB505460C4620788DF898
:10491000000060788DF80100A0788DF8020000207A
:104920008DF8030020798DF8040060798DF805007A
:10493000A0798DF806008DF80750FF208DF808004B
:1049400092208DF809006B460A2207216420FFF7A8
:104950004BFF3EBD38B50446A1208DF800008DF810
:1049600001406B46022210216420FFF73DFF38BD55
:1049700038B504468020A04300906B4601221021E8
:104980006420FFF731FF38BD00B587B0012141F247
:104990000400FCF783FCE020ADF8180018208DF827
:1049A0001B0003208DF81A0006A9FE48FCF7BAF98F
:1049B000E021FC48FCF763FA10208DF81B00000290
:1049C000ADF8180006A9F748FCF7ACF94FF4805190
:1049D000F448FCF754FA0020ADF804004FF482705C
:1049E000ADF806000020ADF808000220ADF80A007E
:1049F0000120ADF80C004002ADF80E003820ADF8F3
:104A000010000020ADF812000720ADF8140001A935
:104A1000E548FCF7CDFC0121E348FCF76EFD07B04B
:104A200000BD10B504462146E0A000F0C1FE002004
:104A300010BD10B504464FF48050E84908600AE004
:104A4000E6490868411EE54A116020B90020FFF7D9
:104A5000E8FFC0B210BD0221D348FCF7D2FD002808
:104A6000EED02146D048FCF779FD4FF48050DB4969
:104A700008600AE0D9490868411ED84A116020B987
:104A80000120FFF7CEFFC0B2E4E70121C648FCF7E2
:104A9000B8FD0028EED0C448FCF762FDC0B2D9E7EB
:104AA00010B500240020CE4908600520FFF7C1FFA3
:104AB0004FF48050C949086000BFFF20FFF7B9FFDD
:104AC0000446C6490868411EC44A116018B904204A
:104AD000FFF7A7FF10BD04F001000028EDD1012071
:104AE000BF49086000BFF5E710B50020BC49086069
:104AF0000620FFF79EFF0120BA49C1F8B00110BDA2
:104B000010B50446FFF7F0FFFFF7CAFF0020B449D5
:104B100008602020FFF78DFFC4F30740FFF789FFEF
:104B2000C4F30720FFF785FFE0B2FFF782FF012003
:104B3000AC49C1F8B001FFF7B3FF10BD10B5FFF7E6
:104B4000D3FF0020A6490860C720FFF772FF0120AD
:104B5000A449C1F8B001FFF7A3FF10BD70B5054629
:104B60000C461646FFF7C0FF00209D490860022052
:104B7000FFF75FFFC4F30740FFF75BFFC4F30720B5
:104B8000FFF757FFE0B2FFF754FFB6F5807F04DD73
:104B90004FF4807694A000F00BFE03E02878FFF736
:104BA00048FF6D1C301EA6F101018EB2F6D1012026
:104BB0008B490860FFF774FF70BD2DE9F05F074671
:104BC0000E4614464FF00008C146C2460025AB46CB
:104BD00006F0FF0ACAF10000C5B22046E11704EB57
:104BE0001161C1F30728E11704EB11610912A4EB6D
:104BF000012101F0FF09BAF1000F20D1B8F1000F37
:104C000005D1224631463846FFF7A8FF64E009E0A7
:104C10004FF4807231463846FFF7A0FF06F58076E4
:104C200007F58077B8F10000A8F1010101F0FF0855
:104C3000EED14A4631463846FFF790FF4CE0B8F1D6
:104C4000000F18D1A94510DDA9EB050000F0FF0BFE
:104C50002A4631463846FFF781FF2E442F445A46F4
:104C600031463846FFF77AFF36E02246314638466D
:104C7000FFF774FF30E0601B84B22046E11704EBBD
:104C80001161C1F30728E11704EB11610912A4EBCC
:104C9000012101F0FF092A4631463846FFF75EFF41
:104CA0002E442F4409E04FF4807231463846FFF716
:104CB00055FF06F5807607F58077B8F10000A8F17A
:104CC000010101F0FF08EED1B9F1000F04D04A460E
:104CD00031463846FFF742FFBDE8F09F70B5054604
:104CE0000C46164600203E4908600320FFF7A1FE4F
:104CF000C4F30740FFF79DFEC4F30720FFF799FEBA
:104D0000E0B2FFF796FE04E0FF20FFF792FE287066
:104D10006D1C301EA6F101018EB2F5D10120304983
:104D2000086070BD2DE9F041002400250026002711
:104D300000202B4908609F20FFF77BFEFF20FFF734
:104D400078FE0546FF20FFF774FE0646FF20FFF7BA
:104D500070FE074601202349C1F8B001280440EA4B
:104D6000062040EA07042046BDE8F08110B5002483
:104D700000201B490860AB20FFF75BFEFF20FFF718
:104D800058FEFF20FFF755FEFF20FFF752FEFF20E1
:104D9000FFF74FFE044601201249C1F8B00120463A
:104DA00010BD000000080140003001403C3C2D4691
:104DB0004C4153482D4552524F522D3E3E205350A8
:104DC0004920B5C8B4FDB3ACCAB1216572726F7227
:104DD000436F6465203D2025640A0000B800002070
:104DE000B0012142000021423C3C2D464C41534839
:104DF0002D4552524F522D3E3E205350495F464C56
:104E00004153485F50616765577269746520746FDC
:104E10006F206C61726765210A00000010B50446BE
:104E20000020314908600320FFF703FEC4F3074068
:104E3000FFF7FFFDC4F30720FFF7FBFDE0B2FFF72C
:104E4000F8FD10BD10B5FF20FFF7F3FD10BD10B544
:104E500004464FF480502549086009E0234908685A
:104E6000411E224A116018B90220FFF7DAFD10BD79
:104E700002211F48FCF7C5FB0028EFD021461C4843
:104E8000FCF76CFB4FF480501849086009E01749A3
:104E90000868411E154A116018B90320FFF7C1FDCB
:104EA000E5E701211248FCF7ACFB0028EFD01048E1
:104EB000FCF756FBDBE710B500200B490860B92072
:104EC000FFF7B7FD01200B49C1F8B00110BD10B5C7
:104ED000002005490860AB20FFF7ABFD0120054924
:104EE000C1F8B00110BD0000B0012142B80000209F
:104EF000003001400000214230B501460846CC1781
:104F000001EB14742411A1EB04140A46CD1701EB34
:104F100015752D1105EB850504EB4504E3B2184624
:104F200030BDF8B5012501260220FFF7E5FF054653
:104F30000220FFF7E1FF064693494879FFF7DCFFBF
:104F4000054691490879FFF7D7FF0646701E691E8E
:104F5000202202FB01000403200C8DF80000200A2F
:104F60008DF80100E0B28DF802002046FFF7C8FD81
:104F700086A000F01DFC032221466846FFF7EEFDE7
:104F80000B2204F580718548FFF7E8FD092204F53E
:104F900000718348FFF7E2FD062204F54071814865
:104FA000FFF7DCFD062204F580617F48FFF7D6FDA0
:104FB000F8BDF8B506460F460024781E711E202263
:104FC00002FB01000503280C8DF80000280A8DF86B
:104FD0000100E8B28DF80200032229467348FFF76A
:104FE0007DFE72481438007D9DF80010884271D112
:104FF0006E481438407D9DF801108842F7D16B4807
:105000001438807D9DF802108842F0D168A000F02D
:10501000CFFB0B2205F5807164481438FFF75EFE64
:10502000092205F5007161480938FFF757FE06228D
:1050300005F540715D48C01CFFF750FE062205F5DE
:1050400080615A480930FFF749FE5EA000F0B0FBCE
:1050500062A000F0ADFB00BF06E05448015D62A015
:1050600000F0A6FB601CC4B25048005D0028F4D1DB
:1050700053A000F09DFB5DA000F09AFB002407E028
:105080004A481438015D5BA000F092FB601CC4B27A
:1050900046481438005D0028F2D149A000F088FB92
:1050A00055A000F085FB002407E040480938015D69
:1050B00053A000F07DFB601CC4B23C480938005D81
:1050C0000028F2D13EA000F073FB4EA000F070FB70
:1050D000002408E022E03548C01C015D48A000F033
:1050E00067FB601CC4B23148C01C005D0028F2D1CF
:1050F00033A000F05DFB45A000F05AFB002407E060
:105100002A480930015D3EA000F052FB601CC4B289
:1051100026480930005D0028F2D134E001203D49E5
:105120000870002406E02148015D3BA000F040FB30
:10513000601CC4B2032CF6DB002407E01B481438C3
:10514000015D3AA000F034FB601CC4B20A2CF5DB10
:10515000002407E015480938015D37A000F028FB5E
:10516000601CC4B2082CF5DB002407E00F48C01C0B
:10517000015D34A000F01CFB601CC4B2052CF5DB03
:1051800033A000F015FBF8BDAE000020B2C1B3FDA6
:105190004F4BA3A1A3A1A3A10A000000510000202E
:1051A000D60200205A02002092020020D0000020E7
:1051B0000D0ABCECB2E2B5BDCAFDBEDDB1EAD6BE99
:1051C0000D0A00000D0AB4D3D0BEC6ACB6C1B5BD41
:1051D000CAFDBEDDA3BA0D0A00000000CAFDBEDD97
:1051E000B1EAD6BE300D0A0025642000CAB1BCE485
:1051F000310D0A0025630000CAB1BCE4320D0A007B
:1052000025632000B5E7C1BF330D0A00B5E7C1BF74
:10521000340D0A00DF000020CAFDBEDDB1EAD6BEB3
:10522000203D202564200D0A0000000031203D2093
:105230002564200D0A00000032203D202564200D49
:105240000A00000033203D202564200D0A000000E4
:105250000D0AC3BBD3D0BCECB2E2B5BDCAFDBEDD06
:10526000B1EAD6BE0D0A00001FB501210520FCF7EA
:1052700015F81020ADF80C0004208DF80F0003A9DC
:105280001F48FBF74FFD04210020FBF761FE1020B3
:10529000FBF7DFFC1020019000208DF808000820AB
:1052A0008DF8090001208DF80A0001A8FBF75AFCCF
:1052B0000A208DF8000001208DF801008DF8020011
:1052C0008DF803006846FBF7AEF91FBD10B50D4819
:1052D000007880B100200B4908700B4800680B492A
:1052E000884205D10AA000F063FAFFF71AFE02E037
:1052F0000FA000F05DFA1020FBF7ABFC10BD000022
:10530000000801408A000020040000201840EF003F
:105310000D0ABCECB2E2B5BD53504920464C415396
:1053200048205732355131323820210D0A00000013
:105330000D0AC3BBD3D0BCECB2E2B5BD535049207B
:10534000464C415348205732355131323820210DD7
:105350000A00000008B501210820FBF79FFF4FF469
:105360004870ADF8000048208DF8030003208DF848
:1053700002006946FC48FBF7D5FC4FF44871FA4837
:10538000FBF77DFD08BD10B5F848007820B1012875
:1053900010D0022830D11EE04FF48071F248FBF7A4
:1053A00054FD18B90120F149087002E00020EF49CE
:1053B000087021E04FF48071EB48FBF746FD30B9EF
:1053C0000220EA4908700120E949087002E0002043
:1053D000E649087010E04FF48071E348FBF735FDB3
:1053E000012805D10020E1490870E148007810BD8E
:1053F0000220DE49087000BF00BF0020F7E710B5AB
:10540000DC48007820B101280FD002282CD11BE005
:105410002021D548FBF719FD18B90120D54908709E
:1054200002E00020D34908701EE02021CE48FBF79F
:105430000CFD28B90220CF490870CF49087002E05E
:105440000020CC4908700FE02021C748FBF7FDFC85
:10545000012805D10020C7490870C748007810BD51
:105460000220C449087000BF00BF0020F7E710B554
:10547000C248007820B1012810D0022830D11EE0A7
:105480004FF40071B848FBF7E0FC18B90120BB49A4
:10549000087002E00020B949087021E04FF4007163
:1054A000B148FBF7D2FC30B90220B44908700320A0
:1054B000B349087002E00020B049087010E04FF4D2
:1054C0000071A948FBF7C1FC012805D10020AB49B8
:1054D0000870AB48007810BD0220A849087000BFD2
:1054E00000BF0020F7E770B50446012C06D1A5489F
:1054F000007818B90120A34908700024A148007859
:10550000012804D002287ED003287AD112E19E48D7
:10551000007801283FD100209B4908709B4A5079B0
:10552000C21700EB12721211A0EB0212974B5979BD
:10553000CB1701EB13731B1103EB830302EB430245
:10554000904B5A70914A9079C21700EB1272121167
:10555000A0EB02128D4B9979CB1701EB13731B1142
:1055600003EB830302EB4302864BDA701846C078E4
:105570000A2190FBF1F03030854988711846C078D7
:105580000A2190FBF1F201FB12003030C1B28048D9
:10559000C17100210172022C0AD17A484078401C66
:1055A00078494870084640780D2801DB0120487092
:1055B000032C0AD173484078401E7249487008464F
:1055C0004078002801DC0C204870012C19D16F4A6A
:1055D0001079C21700EB12721211A0EB02126B4B82
:1055E0001979CB1701EB13731B1103EB830302EB48
:1055F0004302644B9A7002201946087001206249E8
:105600000870AEE0FFE763480078012865D100200C
:10561000604908705B484078012817D059484078A5
:10562000032813D05748407805280FD055484078B4
:1056300007280BD053484078082807D051484078B5
:105640000A2803D04F4840780C2803D11F20524924
:10565000087042E04B48407804280BD04948407815
:10566000062807D047484078092803D045484078A5
:105670000B2803D11E20484908702EE0414840788D
:1056800002282AD1414A9179CA1701EB12721211EC
:1056900002EB82024FF4FA6303EB42023B4B987930
:1056A000C31700EB13731B11A0EB03131A4495B23D
:1056B000E91705EB9171891019B9642195FBF1F196
:1056C00021B94FF4C87195FBF1F119B91D20324988
:1056D000087002E01C2030490870022C0ED12948C5
:1056E0008078401C27498870084681782A480078CD
:1056F000401C814202DB012022498870032C0BD11F
:1057000020488078401E1F4988700846807800280D
:1057100002DC214800788870012C0AD1194A91785E
:105720005078FFF746FC03201649087001201949FC
:10573000087016E019480078012802D100201749A6
:105740000870012C0CD101201449087000200D496B
:105750000870012012490870124908701249087037
:1057600000BF00BF70BD0000000C0140E40000203D
:10577000E5000020E6000020E7000020E80000200F
:10578000E9000020E0000020EC000020AE00002036
:10579000DF020020EB000020EA000020ED000020E6
:1057A0005C0000205D0000205E00002070470000CB
:1057B0000FB4044910B503AA029800F071F910BCA7
:1057C0005DF814FB400000202DE9F0410E46044630
:1057D000002020622046E168884730B3252805D0A4
:1057E000D4E901219047206A401CF2E7E168204695
:1057F00000278847050018D0A5F14100192802D8D4
:1058000020354FF400673246294620462760FAF7D4
:10581000A7FC40B1012804D0F61D26F00706083683
:10582000D8E7361DD6E72846DAE7206ABDE8F081DA
:1058300070B50C460546012A05D02878800600D5AB
:10584000EA69002302E0012305E05B1C934202D2D7
:10585000E05C0028F9D1A869E618C01AA861286A96
:10586000184428622846AFF3008004E0D5E90121FE
:1058700014F8010B9047B442F8D32846AFF30080E8
:1058800070BD00002DE9F04106460024106875291E
:10589000314616A510D0AFF30080002802DA40424E
:1058A00013A507E031688A0701D512A502E0490770
:1058B00004D511A5012401E0AFF3008000210A22E4
:1058C00006F1240709E0B0FBF2FCB0FBF2F302FBA7
:1058D0001C00303078541846491C0028F3D1234668
:1058E0002A463046BDE8F04100F06AB800000000EA
:1058F0002D0000002B0000002000000070B50446C1
:105900000D4621461068AFF300802188090502D5B5
:105910000F4A7A4402E00E4A7A440E32002104F122
:10592000240305E000F00F060009965D5E54491C53
:105930000028F7D120780023000704D5702D02D06D
:1059400009B1022311322046BDE8704000F038B89A
:10595000AA21000010B5203AC0F00B80B1E8185021
:10596000203AA0E81850B1E81850A0E81850BFF449
:10597000F5AF5FEA027C24BFB1E81850A0E81850E8
:1059800044BF18C918C0BDE810405FEA827C24BF3C
:1059900051F8043B40F8043B08BF7047D20728BFCA
:1059A00031F8023B48BF11F8012B28BF20F8023B19
:1059B00048BF00F8012B7047704770477047704729
:1059C0002DE9F0470D4699469246044600F1240819
:1059D0000168880604D5E06921F01001216000E02B
:1059E0000120A84201DD471B00E00027A1697A19C8
:1059F00002EB0900081AA0612078C00602D42046F4
:105A0000AFF30080002608E0D4E901211AF806006F
:105A10009047206A401C761C20624E45F4DB2078BB
:105A2000C0060AD52046AFF3008006E0D4E9012184
:105A300030209047206A401C2062381EA7F10107E1
:105A4000F4DC07E0D4E9012118F805009047206A4A
:105A5000401C2062281EA5F10105F3DC2046AFF3AF
:105A600000802078000602D50220BDE8F0870120E2
:105A7000FBE710B5436913B1AFF3008001E0FFF716
:105A8000D7FE012010BD127800F124010A70002217
:105A90004A700122EDE711684FF0FF32E9E700009C
:105AA000074B70B50D467B4400F011F804462846BC
:105AB00000F020F810B14FF0FF3070BD204670BDEF
:105AC000C5CEFFFF01694A1C02610878704700B526
:105AD0008FB0CDE901310021059105497944CDE927
